:020000040800F2
:1000000000180020C12A0008450400084704000821
:1000100000000000000000000000000000000000E0
:10002000000000000000000000000000490400087B
:1000300000000000000000004B0400084D04000810
:10004000412B0008412B0008412B0008412B0008E0
:10005000412B0008412B0008412B0008412B0008D0
:10006000412B000885040008412B0008412B0008A3
:10007000412B0008412B0008412B0008412B0008B0
:10008000412B00080000000000000000412B000888
:1000900000000000412B0008412B0008412B000804
:1000A00000000000412B0008412B0008412B0008F4
:1000B000412B000800000000412B0008412B0008E4
:1000C00010B5064C2378002B07D1054B002B02D02E
:1000D000044800E000BF0123237010BD0C00002085
:1000E000000000009C2B0008044B10B5002B03D02F
:1000F0000349044800E000BF10BDC04600000000F6
:10010000100000209C2B0008002243088B4274D36F
:1001100003098B425FD3030A8B4244D3030B8B4208
:1001200028D3030C8B420DD3FF22090212BA030C11
:100130008B4202D31212090265D0030B8B4219D3F2
:1001400000E0090AC30B8B4201D3CB03C01A524112
:10015000830B8B4201D38B03C01A5241430B8B425A
:1001600001D34B03C01A5241030B8B4201D30B0343
:10017000C01A5241C30A8B4201D3CB02C01A52416A
:10018000830A8B4201D38B02C01A5241430A8B422D
:1001900001D34B02C01A5241030A8B4201D30B0216
:1001A000C01A5241CDD2C3098B4201D3CB01C01A30
:1001B000524183098B4201D38B01C01A524143093A
:1001C0008B4201D34B01C01A524103098B4201D328
:1001D0000B01C01A5241C3088B4201D3CB00C01A95
:1001E000524183088B4201D38B00C01A524143080D
:1001F0008B4201D34B00C01A5241411A00D2014632
:10020000524110467047FFE701B5002000F006F8A4
:1002100002BDC0460029F7D076E770477047C04658
:1002200072B6FEE700B599B0342200210BA802F0A7
:10023000ADFC1022002107A802F0A8FC1822002122
:1002400001A802F0A3FC09230B93083B0C93129323
:100250000133149380235B02159380235B03169371
:100260000BA800F02FF9002817D107230793053BAF
:100270000893002309930A93012107A800F000FCCA
:1002800000280CD1012301930023039301A800F05F
:10029000AFFC002805D119B000BDFFF7C1FFFFF783
:1002A000BFFFFFF7BDFF000070B500F06BFDFFF76B
:1002B000B9FF00F06BF802F0EBFB00F03DFF01F03E
:1002C00065FE02F073F902F0C3F9002001F0B6FDFB
:1002D000012001F0B3FD294C01221021200000F083
:1002E0003AFE01222021200000F035FE41E06C1E84
:1002F000E217510F601807231840401A13401C19C9
:10030000E410E4B2C0B2210001F008FD200001F0C9
:10031000AFFDAB001A4A98500135EDB20E2D10D842
:100320000C2DE4D96B1CDC10E4B20720184021002E
:1003300001F0F4FC200001F09BFDAB00104A985046
:10034000EAE70022012306E098000D4941585218BF
:1003500092B20133DBB20E2BF6D9140401F010FE79
:1003600020430749C863FA239B004022054802F056
:1003700006F8034B044A1A600125CFE70004004841
:1003800028000020DC000020AA550000F0B5CE4671
:10039000474680B589B01422002103A802F0F6FB7D
:1003A000264B59698020C003014359615A690240B4
:1003B0000092009A596980208002014359615A696C
:1003C00002400192019A5A698021C9020A435A6186
:1003D0005B690B400293029B98231B029946902372
:1003E000DB05984600224946180000F0B4FD144C85
:1003F00000223021200000F0AEFD032503950026E9
:1004000004960127059703A9200000F0DDFC4B4668
:10041000039304970596069503A9404600F0D4FC83
:100420003023039304970596069503A9200000F056
:10043000CBFC09B0C0BCB946B046F0BD00100240CC
:1004400000040048FEE7FEE77047704710B500F073
:10045000A9FC01F07FFD01F089FD084A13880133F2
:100460009BB2138096225200934200D210BD0448E2
:1004700002F0E6F8014B00221A80F7E7680000203E
:100480006401002010B5024800F0A6FD10BDC04672
:10049000B401002082B00A4B99690122114399618D
:1004A00099690A400092009ADA69802149050A4355
:1004B000DA61DB690B400193019B02B07047C046D3
:1004C0000010024070B582B0041E00D17FE20368C4
:1004D000DB072BD5B34B5A680C231340042B1DD0DC
:1004E000B04B5A680C231340082B0ED06368012BC5
:1004F00041D0002B56D1AB4B1A68AB490A401A6069
:100500001A68AA490A401A603BE0A64B5B68C02201
:1005100052021340802252029342E7D1A14B1B6842
:100520009B0303D56368002B00D153E223689B072C
:1005300077D59C4B5B680C221A4262D0994B5A6863
:100540000C231340082B53D0E368002B00D18AE022
:10055000944A136801210B43136000F02FFC05003F
:10056000904B1B689B0775D400F028FC401B0228A9
:10057000F6D903202CE28B4A116880235B020B43DF
:1005800013606368002B25D000F018FC0500854B34
:100590001B689B03CAD400F011FC401B6428F6D9E9
:1005A000032015E2052B09D07E4B1A687E490A40CC
:1005B0001A601A687D490A401A60E2E7794B1968A7
:1005C0008022D2020A431A601968802252020A432A
:1005D0001A60D6E700F0F2FB0500724B1B689B0324
:1005E000A4D500F0EBFB401B6428F6D90320EFE113
:1005F0006C4B5B68C022520213408022120293426D
:10060000A2D1684B1B689B0703D5E368012B00D080
:10061000E2E164490B68F82293432269D200134354
:100620000B6023681B0744D5E369002B2ED05D4A7D
:10063000536A01210B43536200F0C0FB0500594B84
:100640005B6A9B0735D400F0B9FB401B0228F6D942
:100650000320BDE153490B68F82293432269D2007D
:1006600013430B60DDE74F4A136801218B4313608E
:1006700000F0A4FB05004B4B1B689B07D1D500F095
:100680009DFB401B0228F6D90320A1E1454A536A8D
:1006900001218B43536200F091FB0500414B5B6AE3
:1006A0009B0706D500F08AFB401B0228F6D90320E1
:1006B0008EE123685B0700D480E03A4BDB69DB0006
:1006C0001DD4384AD169802040050143D161D369E6
:1006D00003400193019B0125354B1B68DB0510D5B9
:1006E000A368012B21D0002B36D12E4B1A6A012191
:1006F0008A431A621A6A03318A431A621AE0002591
:10070000EAE72B4A116880235B000B43136000F07B
:1007100055FB0600264B1B68DB05E1D400F04EFBC1
:10072000801B6428F6D9032052E11E4A136A012176
:100730000B431362A368002B24D000F03FFB06009C
:10074000184B1B6A9B0737D400F038FB801B194BF2
:100750009842F5D903203BE1052B09D0114B1A6AC9
:1007600001218A431A621A6A03318A431A62E1E755
:100770000C4B1A6A04210A431A621A6A03390A43A3
:100780001A62D7E700F01AFB0600064B1B6A9B07AC
:1007900012D500F013FB801B064B9842F5D90320BD
:1007A00016E1C04600100240FFFFFEFFFFFFFBFF07
:1007B0000070004088130000012D39D02368DB064B
:1007C00010D56369012B39D0053357D1894A536B52
:1007D00004218B435363536BF4318B43A169C900EC
:1007E0000B43536323689B066ED5824B5A680C23D8
:1007F00013400C2B60D07F4B5A680C231340082BFE
:1008000053D0236A002B7ED07A4A516B80235B023F
:100810000B43536300F0D2FA0500764B5B6B9B03EE
:1008200052D400F0CBFA401B0228F6D90320CFE0C7
:10083000704AD36970490B40D361BFE76D4B5A6B67
:1008400004210A435A635A6B03390A435A6300F07E
:10085000B5FA0500674B5B6B9B0706D400F0AEFA58
:10086000401B0228F6D90320B2E062494B6BF82204
:100870009343A269D20013434B63B3E75D4B5A6BBA
:1008800004210A435A635A6B03398A435A6300F0BE
:1008900095FA0500574B5B6B9B07A3D500F08EFACA
:1008A000401B0228F6D9032092E0524B5B68C0221D
:1008B000520213409342A4D14E4B5B6B9B0303D572
:1008C000236A012B00D089E0636A002B00D187E006
:1008D000484A51680C220A40082A60D0022B25D0D1
:1008E000444A136845490B40136000F067FA04005E
:1008F000404B1B689B0150D500F060FA001B02289A
:10090000F6D9032064E03B4A536B3D490B405363E7
:1009100000F054FA0500374B5B6B9B03D4D500F015
:100920004DFA401B0228F6D9032051E0314A1368E2
:1009300032490B40136000F041FA05002D4B1B6853
:100940009B0106D500F03AFA401B0228F6D9032095
:100950003EE0284BDA6A0F218A43216B0A43DA62B0
:100960005A6828490A40E16AA06A01430A435A606A
:100970001968802252040A431A6000F01FFA04002A
:100980001C4B1B689B0106D400F018FA001B0228C0
:10099000F6D903201CE000201AE0002018E0012B0B
:1009A00020D0144B5A68D96AC0235B021340A06A56
:1009B000834219D10F230B40216B8B4216D1F023B8
:1009C0009B031A40E36A9A4212D1002000E0012002
:1009D00002B070BD0120FBE70120F9E70120F7E735
:1009E0000020F5E70120F3E70120F1E70120EFE720
:1009F0000120EDE700100240FFFFFFEFFFFFFFFEC9
:100A0000FFFFFEFFFF7FC2FF10B5184B5A680C2393
:100A10001340082B03D00C2B25D1154810BD910C89
:100A20000F2319401348445C1049C96A0B4012490E
:100A3000C95CC0235B021A4080235B029A4208D043
:100A4000C0235B029A4209D00C48FFF75DFB60436C
:100A5000E4E70A48FFF758FB6043DFE70448FFF785
:100A600053FB6043DAE70548D8E7C0460010024070
:100A7000006CDC02B82B0008C82B000800127A00BA
:100A800070B504000D00002800D186E0474B1A68BD
:100A9000012313408B420AD244490B68012293433D
:100AA0002B430B600B681A40AA4200D077E0236802
:100AB0009A070ED55B0705D53D4A5168E023DB0058
:100AC0000B4353603A4A5368F0218B43A1680B43B0
:100AD00053602368DB0735D56368012B09D0022BEF
:100AE00024D0032B28D0324A1268920705D4012063
:100AF00052E02F4A1268920353D52D494A680320C9
:100B0000824313434B6000F059F90600284B5B68A1
:100B10000C221A4063689B009A4213D000F04EF9F1
:100B2000801B244B9842F1D9032035E0204A1268FB
:100B30009201E2D401202FE01D4A526B9203DCD4D3
:100B4000012029E0194B1A6801231340AB4209D94F
:100B500016490B68012293432B430B600B681A4024
:100B6000AA4220D123685B0706D5114A536812496F
:100B70000B40E1680B435360FFF746FF0C4B5A688C
:100B800012090F2313400D4AD35CD8400C4B186058
:100B9000002000F0CFF8002070BD0120FCE701200C
:100BA000FAE70120F8E70120F6E7C04600200240FE
:100BB0000010024088130000FFF8FFFFD82B000848
:100BC00008000020014B18687047C046080000204C
:100BD00010B5FFF7F7FF044B5A68120A07231340BA
:100BE000024AD35CD84010BD00100240E82B000838
:100BF00070B582B004000368DB0337D5474BDB696F
:100C0000DB005DD4454AD169802040050143D161B4
:100C1000D36903400193019B0125414B1B68DB0510
:100C200050D53E4B1A6AC0239B00110019401A424E
:100C300013D0626813408B420FD0384B186A394A80
:100C400002401E6A8021490231431962196A364EF8
:100C5000314019621A62C30748D4304A136A3149D5
:100C60000B4061680B431362012D4ED02368DB07F4
:100C700006D52A4A136B03218B43A1680B431363E8
:100C800023689B0606D5254A136B10218B43E16828
:100C90000B43136323689B0306D5204A136B802103
:100CA0008B4361690B43136323685B0532D51B4A91
:100CB000136B40218B4321690B43136300202AE00F
:100CC0000025AAE7164A116880235B000B431360D6
:100CD00000F074F80600124B1B68DB05A1D400F08D
:100CE0006DF8801B6428F6D9032014E000F066F844
:100CF00006000A4B1B6A9B07AFD400F05FF8801B0D
:100D00000A4B9842F5D9032005E0D36908490B4006
:100D1000D361ABE7002002B070BDC04600100240B6
:100D200000700040FFFCFFFFFFFFFEFF8813000084
:100D3000FFFFFFEF10B504000F4B1978FA20800079
:100D4000FFF7E2F901000D4B1868FFF7DDF900F03D
:100D5000D5F900280DD1032C01D901200AE001307A
:100D600000222100404200F08DF9054B1C6000205C
:100D700000E0012010BDC046000000200800002057
:100D80000400002010B5064A136810210B431360BD
:100D90000020FFF7CFFFFFF77DFB002010BDC0460E
:100DA00000200240034A1168034B1B785B18136054
:100DB0007047C0466C00002000000020014B1868FE
:100DC0007047C0466C000020F0B583B0002357E0A8
:100DD00084685F000326BE40B4432600CC68BC4054
:100DE00034438460446894434A68160901223240BF
:100DF0009A402243426053E0DC080834A40026589D
:100E000005321A4092000F279740BE430F69974062
:100E10003A003243225057E0022600E00026A64066
:100E200034003C4302329200424E9451424A94684C
:100E3000EA432600AE434F68FF0201D52C4326004B
:100E40003D4CA660E468260016404F68BF0201D5FD
:100E50002C432600384CE6606468260016404F6834
:100E6000BF0301D52C432600334C66602468224022
:100E70004E68F60301D52A0022432F4C226001332D
:100E80000C682200DA4052D001229A402500154019
:100E90001442F4D003244E683440013C012C97D90D
:100EA00003224C682240032A09D0C2685E00032452
:100EB000B440A24314008A68B2402243C2600322B5
:100EC0004C682240022A97D004685E000322170073
:100ED000B740BC434F683A40B24022430260C02250
:100EE00092024C681442CAD0144CA66901221643DF
:100EF000A661A46922400192019A9A08941CA40058
:100F00000C4EA75903241C40A4000F26A640B7434B
:100F10009026F605B04281D0094EB04205D0094E68
:100F2000B04200D178E7052679E7012677E703B0DC
:100F3000F0BDC04600000140000401400010024026
:100F4000000400480008004803690B4201D001205A
:100F500070470020FCE7002A01D081617047816260
:100F6000FCE7000010B504000068054B9C46604497
:100F70001421FFF7C9F880002064024BE36310BD21
:100F8000F8FFFDBF0000024070B5041E20D02125EF
:100F90000223435501680B680E4A1A404368806873
:100FA0000343E06803432069034360690343A06986
:100FB0000343E069034313430B602000FFF7D2FFB4
:100FC0000023A363012262551F32A354002070BD89
:100FD0000120FCE70FC0FFFF70B5C36B1A680468FF
:100FE0002568016C04238B401A4212D06B0710D580
:100FF00023689B0603D42368042293432360C26BB7
:101000000423016C8B405360C36A002B00D09847C7
:1010100070BD02238B401A4218D0AB0716D5236847
:101020009B0606D423680A22934323602123093AAE
:10103000C254C26B0223016C8B40536020230022F8
:10104000C254836A002BE3D09847E1E708238B4022
:101050001A42DDD02B07DBD523680E229343236091
:10106000C26B01231900046CA140516083632122EB
:1010700083541F330022C254036B002BC8D09847FF
:10108000C6E7000070B5002811DB8308134EC0339B
:101090009B009D5903242040C000FF22140084407F
:1010A000A54389010A4082402A439A5170BD0F230B
:1010B0000340083B9B0806339B00094A944663445F
:1010C0005C6803221040C000FC3215008540AC4330
:1010D00089010A40824022435A60E7E700E100E0CC
:1010E00000ED00E0002805DB1F2318401E3B834075
:1010F000014A13607047C04600E100E001388023D8
:101100005B0498420FD2094A50600948036A1B02E7
:101110001B0AC02109060B430362002393600733B7
:101120001360002070470120FCE7C04610E000E09B
:1011300000ED00E07047000010B51148114B03604E
:1011400082235B00436000238360E022D200C26000
:10115000036101224261802292008261E13AFF3AFA
:10116000C261036243628362193AC26203634363EA
:1011700000F0B6F9002800D110BDFFF751F8FBE7E9
:10118000700000200030014010B588B00400142227
:10119000002103A801F0FAFC2268124B9A4201D008
:1011A00008B010BD104B996980204001014399613E
:1011B0009A6902400192019A5A69802189020A4380
:1011C0005A615B690B400293029BE0230393DE3B71
:1011D000049301330693902003A9C005FFF7F4FDA3
:1011E000DEE7C0460030014000100240F0B5D646B0
:1011F0004F464646C0B582B006000D0090461F001F
:10120000FFF7DCFD0A9B181A8146B944FFF7D6FDAB
:1012100082462E4B1B685B011B0D4A4653430193CC
:1012200033689C682C40641B63425C41444545D054
:101230007B1CF5D0FFF7C2FD5346C01A48450BD2C0
:101240004B46002B08D0019A002A00D04A46019B49
:10125000013B01939146E3E732685368E0218B43F9
:10126000536082235B0072689A420CD080239B01FA
:10127000B26A9A4216D05D230122F254013B002249
:10128000F25403201BE0B36880221202934203D081
:101290008022D2009342E9D13268136840218B4307
:1012A0001360E3E73268136809490B401360326842
:1012B000116880239B010B431360DCE7002002B020
:1012C000E0BCBA46B146A846F0BDC04608000020C2
:1012D000FFDFFFFFF0B5DE4657464E464546E0B518
:1012E00083B007000D00160098466B460022DA70A6
:1012F000FFF764FD0C9B181A40448146FFF75EFD22
:1013000082463B689B46364B1A6893009A18D30076
:101310009B1A1B0D4A465343019302E04346013397
:1013200011D13B689C682C40B44250D0C023DB00F4
:101330009D42F3D1002EF1D15B461B7BDBB26A46A6
:10134000D370D378EAE7FFF739FD5346C01A484512
:101350000BD24B46002B08D0019A002A00D04A46F7
:10136000019B013B01939146DBE73A685368E0211A
:101370008B43536082235B007A689A420CD08023AF
:101380009B01BA6A9A4216D05D230122FA54013BAE
:101390000022FA5403201BE0BB6880221202934211
:1013A00003D08022D2009342E9D13A6813684021E9
:1013B0008B431360E3E73A6813680A490B401360F4
:1013C0003A68116880239B010B431360DCE700201F
:1013D00003B0F0BCBB46B246A946A046F0BDC0462D
:1013E00008000020FFDFFFFF70B582B004000D0091
:1013F0001600C02100922B0000224901FFF76AFF6E
:10140000002818D100962B00002280212000FFF731
:10141000EDFE002816D1C02100962B000022C90045
:101420002000FFF757FF00280AD0236E2022134325
:101430002366032004E0236E202213432366032047
:1014400002B070BD236E2022134323660320F7E70A
:1014500070B582B004000D00160082235B00426864
:101460009A420FD000962B00002280212000FFF727
:10147000BDFE002815D182235B0062689A4216D017
:1014800002B070BD836880221202934203D0802292
:10149000D2009342E6D12268136840218B43136047
:1014A000E0E7236E2022134323660320E8E7A368C6
:1014B00080221202934203D08022D2009342DFD1D5
:1014C000C02100962B000022C9002000FFF702FF78
:1014D0000028D5D0236E2022134323660320CFE7B4
:1014E00070B5041E00D178E0436A002B07D10533A4
:1014F000FF3342689A4205D00023C36102E0002313
:10150000036143610023A3625D33E35C002B5AD087
:101510005D230222E2542268136840218B4313604A
:10152000E368E022D200934254D90022F02109015D
:101530008B4205D0E021C9008B4201D00023A36279
:1015400082235B0061680B4084210902A06801408E
:101550000B430221206901400B43012160690840CF
:10156000034380208000A569284003433820E569B3
:10157000284003438020256A2840034380208001BF
:10158000A56A2840034320680360608B042303405E
:101590001020656A284003430820656B28400343F8
:1015A000F0200001E56828400343206813434360AE
:1015B0002268D3690A480340D361002323665D3360
:1015C000E154002070BD5C330022E2542000FFF79C
:1015D000DBFD9DE780225201A8E70120F2E7C0462B
:1015E000FFF7FFFFF0B5CE4600B584B004000191CF
:1015F00091461D005C23C35C012B00D1CBE05C2332
:101600000122C254FFF7DAFB06005D23E35CDFB280
:10161000012B00D0B6E00199002900D1B3E04B4680
:10162000002B00D1AFE05D230322E25400232366A8
:10163000A1634A46A287E28723644422A35202326E
:10164000A3522365E36480231B02A2689A421ED042
:1016500023681A68520603D41A6840210A431A60A4
:10166000E023DB00E2689A423ED96368002B02D097
:101670004B46012B20D12368A26B1288DA60A36B42
:101680000233A363E38F013B9BB2E38714E022683C
:10169000136840218B431360226811688023DB01AB
:1016A0000B431360D4E7FFF789FB801BA84201D3EB
:1016B0006B1C14D1002D12D0E18F89B2002946D0C5
:1016C00023689A689207EED5A26B1288DA60A36B42
:1016D0000233A363E38F013B9BB2E387ECE75D2317
:1016E0000122E25403274EE06368002B02D04B46F0
:1016F000012B14D1A36B1B7822681373A36B0133E6
:10170000A363E38F013B9BB2E38708E0FFF756FB3F
:10171000801BA84201D36B1C14D1002D12D0E18F85
:1017200089B2002913D023689A689207EED5A26B7C
:1017300012781A73A36B0133A363E38F013B9BB24F
:10174000E387ECE75D230122E25403271BE032002C
:1017500029002000FFF748FE002801D0202323663F
:10176000A368002B06D103932368DA6803929B6871
:101770000393039B236E002B05D15D330122E254BA
:10178000002700E002275C230022E254380004B066
:1017900080BCB946F0BD0227F8E70000F0B583B081
:1017A0000400009101921E00089D5C23C35C012B84
:1017B00000D11EE15C230122C254FFF7FFFA0700AB
:1017C0005D23E35CD9B26268012B0BD082235B00FE
:1017D0009A4200D0FBE0A368002B00D0FDE0042972
:1017E00000D0FCE0009B002B00D1FAE0019B002B15
:1017F00000D1F8E0002E00D1F7E05D23E35C042B7C
:1018000002D05D230522E25400232366019A22645C
:101810004622A652023AA652009AA263E687A687FB
:10182000E3642365E023DB00E2689A4223D922685F
:10183000536871490B40536023681A68520603D4F9
:101840001A6840210A431A60E023DB00E2689A42EA
:1018500058D96368002B01D0012E0AD12368A26BEE
:101860001288DA60A36B0233A363E38F013B9BB260
:10187000E38701262DE02268516880235B010B433A
:101880005360D9E7A26B1288DA60A36B0233A363BB
:10189000E38F013B9BB2E387002623689A68D20757
:1018A00010D54622A25A92B2002A0BD0DB68226CD5
:1018B0001380236C023323644622A35A013B9BB25C
:1018C000A3520126FFF77AFAC01BA84201D36B1C72
:1018D00013D1E38F9BB2002B04D14633E35A9BB262
:1018E000002B63D023689A689207D6D5E28F92B214
:1018F000002AD2D0012ED0D1C4E75D230122E254C8
:10190000032065E06368002B01D0012E0AD1A36B90
:101910001B7822681373A36B0133A363E38F013B2E
:101920009BB2E38701261DE023689A68D20710D591
:101930004622A25A92B2002A0BD01B7B226C137053
:10194000236C013323644622A35A013B9BB2A3526A
:101950000126FFF733FAC01BA84201D36B1C20D12C
:10196000002D1ED0E38F9BB2002B04D14633E35AE7
:101970009BB2002B1AD023689A689207D4D5E28FC5
:1019800092B2002AD0D0012ECED1A26B12781A7357
:10199000A36B0133A363E38F013B9BB2E387002674
:1019A000C2E75D230122E254032011E03A0029003E
:1019B0002000FFF719FD002802D020232366012014
:1019C000236E002B13D15D330122E25400E002208C
:1019D0005C230022E25403B0F0BD0220F8E70220AD
:1019E000F6E70120F4E70120F2E70120F0E701200B
:1019F000EEE70220EFE7C046FFEFFFFFF0B5CE466F
:101A000000B584B00400039116001D005D23C35C83
:101A1000DFB2012B00D0BAE00433FF3342689A42B0
:101A20003DD05C23E35C012B00D1B9E05C230122B3
:101A3000E254FFF7C3F981460399002900D1A7E0DA
:101A4000002E00D1A4E05D230422E254002323668B
:101A500021644032A6520232A652A363A387E387D1
:101A6000E3642365E023DB00E2689A4224D922681C
:101A700053684C490B40536080231B02A2689A4272
:101A800021D023681A68520603D41A6840210A43F9
:101A90001A60E023DB00E2689A4229D94CE08368AF
:101AA000002BBED15D330422C254009533000A00DE
:101AB000FFF774FE07006EE02268516880235B0127
:101AC0000B435360D8E72268136840218B431360AF
:101AD0002268136834490B401360D2E7FFF76EF9B0
:101AE0004B46C01AA84201D36B1C16D1002D14D04E
:101AF0004623E35A9BB2002B38D023689A68D2075A
:101B0000ECD51B7B226C1370236C013323644622BB
:101B1000A35A013B9BB2A352EAE75D230122E254A0
:101B2000032735E0FFF74AF94B46C01AA84201D314
:101B30006B1C16D1002D14D04623E25A92B2002A13
:101B400014D023689A68D207ECD5DB68226C138026
:101B5000236C023323644622A35A013B9BB2A35257
:101B6000EAE75D230122E254032711E04A462900F7
:101B70002000FFF76DFC002801D020232366236E90
:101B8000002B05D15D330122E254002700E002273B
:101B90005C230022E254380004B080BCB946F0BD9A
:101BA0000227F8E7FFEFFFFFFFBFFFFF10B582B08E
:101BB000140001AA254B1B881380002393700F3358
:101BC0000340502003431370917009E00221204824
:101BD000FFF7BAF9013843425841C0B200280AD091
:101BE000002CF3D101211A48FFF7AEF90138434226
:101BF0005841C0B2F2E7002C18D08021903000226A
:101C00004901C005FFF7A7F9FA239B00032201A9A8
:101C10001048FFF7E7FC002C10D080219020012213
:101C20004901C005FFF797F902B010BD802190204F
:101C300000220901C005FFF78EF9E5E78021902019
:101C400001220901C005FFF786F9EDE7B42B000872
:101C5000000400487000002010B582B004006B46FC
:101C6000F022DA7109E002212A48FFF76DF9013804
:101C700043425841C0B200280AD0002CF3D10121C0
:101C80002448FFF761F9013843425841C0B2F2E7F6
:101C9000002C0FD08021903000224901C005FFF7B1
:101CA0005AF9FA239B000122694607311A48FFF7C7
:101CB00099FC11E08021902000220901C005FFF766
:101CC0004AF9EEE702211348FFF73EF9431E5A4254
:101CD0005341DBB2002B0AD0002CF3D101210D4877
:101CE000FFF732F9431E5A425341DBB2F2E7002CB0
:101CF00008D08021902001224901C005FFF72BF96F
:101D000002B010BD8021902001220901C005FFF71B
:101D100022F9F5E7000400487000002070B582B099
:101D200005000C0001AB00221A80FC321A70072853
:101D30000BD902B070BD02213D48FFF705F9431EE3
:101D40005A425341DBB2002B0AD0002CF3D10121BF
:101D50003748FFF7F9F8431E5A425341DBB2F2E726
:101D6000072D08D8AD00334B5B599F462200082150
:101D70000120FFF71BFF002C4AD080219020002279
:101D80004901C005FFF7E7F8FA26B6002A4D3300EF
:101D9000012201A92800FFF725FC33000122694632
:101DA00005312800FFF71EFC002C39D0802190203F
:101DB00001224901C005FFF7CEF8BAE72200182139
:101DC0000120FFF7F3FED6E7220028210120FFF7CC
:101DD000EDFED0E7220038210120FFF7E7FECAE739
:101DE000220048210120FFF7E1FEC4E7220058212C
:101DF0000120FFF7DBFEBEE7220068210120FFF78C
:101E0000D5FEB8E7220078210120FFF7CFFEB2E728
:101E10008021902000220901C005FFF79CF8B3E75C
:101E20008021902001220901C005FFF794F880E786
:101E300000040048F02B00087000002010B50400DA
:101E4000020006210020FFF7B1FE2200002102203F
:101E5000FFF7ACFE2200F0210320FFF7A7FE2000D1
:101E6000FFF7FAFE21000020FFF758FF10BD000029
:101E7000F0B583B0040001AB324A12881A80002208
:101E80009A706B460132DA7009E002212E48FFF7A2
:101E90005BF8431E5A425341DBB2002B0AD0002CA0
:101EA000F3D101212848FFF74FF8431E5A4253410E
:101EB000DBB2F2E7002C34D08021902000224901CF
:101EC000C005FFF748F8FA27BF00204E3B0001226B
:101ED000694603313000FFF785FB1D4D28703B003C
:101EE000032201A93000FFF789FD2870002C20D0C3
:101EF0008021902001224901C005FFF72CF801AB99
:101F0000187800045A78120210439B7818438023F3
:101F10001B04184203D040420002000A404203B0B2
:101F2000F0BD8021902000220901C005FFF713F8C1
:101F3000C9E78021902001220901C005FFF70BF8B5
:101F4000DDE7C046B42B0008000400487000002004
:101F5000D4000020044B1B68002B03D0024A1368F6
:101F6000013B13607047C046D8000020034A138825
:101F700001339BB2138013887047C046D6000020FF
:101F8000014B188880B27047D600002010B50C486D
:101F90000C4B0360E1231B03436000238360C36099
:101FA00003610C2242618361C3610362436200F0FA
:101FB000C7FA002800D110BDFEF732F9FBE7C04692
:101FC000DC0000200038014010B588B00400142265
:101FD000002103A800F0DAFD2268114B9A4201D0DB
:101FE00008B010BD0F4B99698020C0010143996171
:101FF0009A6902400192019A5A698021C9020A43F2
:102000005A615B690B400293029BC0230393BE3B62
:1020100004930133069303A90348FEF7D5FEDFE7D7
:1020200000380140001002400004004810B5EFF3F2
:10203000108C012282F3108801680B68124C234037
:102040000B608CF31088EFF3108C82F3108801681A
:102050008B6893438B608CF31088036E012B06D042
:1020600080232022C25000230366836610BDEFF355
:10207000108183F31088026813683234FF34A3435D
:10208000136081F31088EBE7DFFEFFFF10B504005B
:1020900083680269134342691343C26913430168A9
:1020A0000A684F48024013430B60226853684D4949
:1020B0000B40E1680B435360226AA3691A4321680D
:1020C0008B684948034013438B602368474A934217
:1020D00022D0474A934230D01023E0698022120276
:1020E000904234D0042B00D172E060D8002B68D02D
:1020F000022B5AD13F4863685B0818186168FEF7E5
:1021000003F80200103A3C4B9A4266D82368000458
:10211000000CD860002050E0384B1A6B03231340AA
:10212000022B0CD005D8002B0BD0012B0BD1033385
:10213000D3E7032B09D1013BCFE70023CDE70823E9
:10214000CBE70023C9E71023C7E71023C5E7042B1B
:1021500028D01DD8002B1FD0022B17D125484000B6
:1021600063685B08C0186168FDF7CEFF0200103A93
:10217000214B9A422FD882B20F239A434008083B42
:10218000184010432368D860002016E0012014E0B6
:10219000082BE4D0012010E0FEF71AFD0028DED164
:1021A00000200AE0FEF730FCF8E7012005E0082BEC
:1021B00002D1802000029EE701200023A366E3668F
:1021C00010BDFEF705FD002800D094E70020F4E7DD
:1021D000FEF71AFCF7E70120EFE70120EDE7C04624
:1021E000F369FFEFFFCFFFFFFFF4FFFF003801406F
:1021F0000044004000127A00EFFF0000001002408F
:10220000436A1B0706D5026853682C490B40416B93
:102210000B435360436ADB0706D5026853682849BD
:102220000B40816A0B435360436A9B0706D50268E3
:10223000536824490B40C16A0B435360436A5B07F0
:1022400006D50268536820490B40016B0B4353606D
:10225000436ADB0606D5026893681C490B40816B14
:102260000B439360436A9B0606D50268936818493E
:102270000B40C16B0B439360436A5B060BD502684E
:10228000536814490B40016C0B43536080235B037C
:10229000026C9A420AD0436A1B0606D5026853684C
:1022A0000D490B40816C0B435360704702685368C3
:1022B0000A490B40416C0B435360ECE7FF7FFFFF83
:1022C000FFFFFDFFFFFFFEFFFFFFFBFFFFEFFFFF35
:1022D000FFDFFFFFFFFFEFFFFFFFF7FFFFFF9FFFA6
:1022E000F8B5CE46474680B506000D001700994662
:1022F000089B98463368DC692C40641B63425C4150
:10230000BC4233D143460133F4D0FEF757FD4B4670
:10231000C01A40452FD84346002B2ED033681A6888
:102320005207E7D5802DE5D0402DE3D0DA691207BA
:1023300010D4DA691205DDD5802212011A6230004C
:10234000FFF774FE84232022F2500C3B0022F2544B
:1023500003200CE008241C623000FFF767FE842392
:10236000F4500C3B0022F254012000E00020C0BCDD
:10237000B946B046F8BD0320F9E70320F7E7F0B50A
:10238000C64600B582B004000D0090461E00C36F23
:10239000202B62D1002965D0002A65D080235B0103
:1023A00082689A4204D10369002B01D1CB075DD426
:1023B00084230022E250633BE367FEF7FFFC070043
:1023C00050234246E2520233E25280235B01A2686C
:1023D0009A4202D0002398461AE02369002B02D0CB
:1023E0000023984614E0A846002511E02023E36767
:1023F000032033E043461B88DB05DB0D2268138591
:1024000002239C46E0445223E25A013A92B2E2523D
:102410005223E35A9BB2002B0FD000963B000022C0
:1024200080212000FFF75CFF0028DFD1002DE1D0E4
:102430002B78226813850135E5E700963B000022E2
:1024400040212000FFF74CFF002802D12023E36742
:1024500004E02023E367032000E0022002B080BCF8
:10246000B846F0BD0120F9E70120F7E70120F5E7C4
:1024700030B583B0040084230022C250FEF79EFCD6
:1024800005002268126813070FD423681B685B07D6
:1024900029D42023E3678022A350002323666366A8
:1024A000083AA354002003B030BD8021224B009392
:1024B0000300002289032000FFF712FF0028E4D068
:1024C000EFF31081012383F31088226813688020C2
:1024D0008343136081F310882023E367583300227D
:1024E000E2547D38DFE78021134B00932B0000225C
:1024F000C9032000FFF7F4FE0028CAD0EFF31080D4
:10250000012282F3108821680B680C4D2B400B6070
:1025100080F31088EFF3108082F3108821688B68B5
:1025200093438B6080F3108880231F32E250083B76
:102530000022E2540320B6E7FFFFFF01DFFEFFFFAA
:1025400010B5041E2ED0C36F002B21D02423E367C7
:102550002268136801218B431360636A002B1DD12D
:102560002000FFF793FD012811D0226853680E491F
:102570000B405360226893682A218B439360226842
:10258000136829390B4313602000FFF771FF10BD5A
:1025900078330022C254FFF717FDD7E72000FFF77A
:1025A0002FFEDDE70120F2E7FFB7FFFF10B5084877
:1025B000084B036000234360FA231B01C360836060
:1025C00000F00AF8002800D110BDFDF729FEFBE756
:1025D000640100200030004070B5041E28D003685C
:1025E000144A1A600368144A1A60036842685A6001
:1025F000036882689A60FEF7E1FB05002368DA68E9
:1026000052070AD0FEF7DAFB401B2728F6D92368C9
:10261000DB685B07F2D003200BE01969E2689142A6
:1026200002D01A61002004E0044A1A60002000E091
:10263000012070BDCCCC000055550000AAAA0000B6
:102640000368024A1A6000207047C046AAAA000028
:1026500000B585B00C22002101A800F097FA2F48A0
:102660002F4B036080231B06436000238360C360FD
:102670000122026104214161037643768276C376AA
:10268000C221FF31C16103629E39FF394254836226
:1026900000F096F800282ED10023019380235B01DF
:1026A00002930323039301A91C4800F04BF900286F
:1026B00024D10123019301A9184800F043F900280F
:1026C0001FD10223019301A9144800F03BF900280F
:1026D0001AD10323019301A9104800F033F900280F
:1026E00015D10423019301A90C4800F02BF900280F
:1026F00010D105B000BDFDF793FDCDE7FDF790FDCE
:10270000D7E7FDF78DFDDCE7FDF78AFDE1E7FDF793
:1027100087FDE6E7FDF784FDEBE7C0467401002086
:102720000024014010B588B004001422002103A841
:1027300000F02CFA1E4B22689A4201D008B010BD5E
:102740001C4B996980208000014399619A6902407D
:102750000192019A5A69802189020A435A615B6990
:102760000B400293029B1F2303931C3B049371387D
:10277000FF3803A9C005FEF727FB0F480F4B036086
:102780000023436083608022C26080320261802225
:10279000D200426120228261C361FEF7F5FB00286E
:1027A00003D1054B23635C62C8E7FDF739FDF8E709
:1027B0000024014000100240B40100200800024043
:1027C00070B5041E00D1B4E0836B002B00D180E013
:1027D000A36BDB0600D5A6E0226891680420050003
:1027E0000D40084200D09EE0A16B534B19400633C8
:1027F000FF331943A163916801330B40012B6ED065
:10280000D36818218B43A1680B43D36022681369F6
:102810009B009B0861680B4313612268D36847499A
:102820000B40D360237E9B03627ED2031343A17EC1
:102830004A031343A26A012A58D08022520113434B
:10284000E26813432269022A52D02B432422A25C5D
:1028500052001343E27E012A4CD0E269C221FF31CB
:102860008A4202D0216A0A4313432168CA681A4384
:10287000CA60E26A802149058A420DD0012A0BD044
:10288000022A09D0032A07D0042A05D0052A03D03A
:10289000062A01D0072A0AD12068416907229143FC
:1028A000416120684169E56A2A400A434261226821
:1028B000D26823490A409A422BD0A36B1222934339
:1028C000023A1343A363E36B0F3A1343E36301201C
:1028D0002EE0C36334228354FFF724FF78E71368A4
:1028E000DB079AD4D3681B0497D489E72A00A6E7AC
:1028F0000425AAE7002903D1802252021343ACE742
:10290000A26B20210A43A263E26B1F390A43E263F0
:10291000A3E70023E363A36B03229343023A134329
:10292000A363002004E0A36B10221343A3630120E0
:1029300070BD0120FCE7C046FDFEFFFF1902FEFF4F
:10294000E7FF3F8330B583B00400002301933433A5
:10295000C35C012B00D18AE034230122C2540368F6
:102960009A68520775D4434A4868904256D09A6A8A
:1029700001200D68A84002439A62E36A8022520552
:1029800093421ED0012B1CD0022B1AD0032B18D03F
:10299000042B16D0052B14D0062B12D0072B10D0E9
:1029A00022685069072303408868984209D050691B
:1029B000072398435061206842698D682B40134378
:1029C00043610B681A00103A022A4CD82A4A12684E
:1029D000102B0ED0112B09D080235B041343264A01
:1029E00013600B68102B07D0002037E08023DB0337
:1029F000F4E780231B04F1E7204B18682049FDF71A
:102A000083FB83001B185B00019302E0019B013BE9
:102A10000193019B002BF9D100201FE09A6A01204D
:102A20000D68A84082439A620B681A00103A022A85
:102A30001BD8114A1268102B09D0112B05D0114B4D
:102A400013400D4A1360002008E00F4BF8E70F4BCE
:102A5000F6E7836B20221343836301203423002293
:102A6000E25403B030BD0020F8E70020F6E7022072
:102A7000F7E7C046011000000827014008000020C9
:102A800040420F00FFFFFFFEFFFFBFFFFFFF7FFF82
:102A900000B583B0094A5169012319435161526954
:102AA00013400193019B002200210920FEF7EAFA5E
:102AB0000920FEF717FB03B000BDC046001002401E
:102AC00013488546FEF736FB12480168090E124A84
:102AD000914205D111481249016012481249016022
:102AE00012481349134A002302E0D458C450043357
:102AF000C4188C42F9D3104A104C002301E0136033
:102B00000432A242FBD300F01DF8FDF7CDFBFEE737
:102B100000180020040000001F00000018100240F0
:102B20000100000000000140000000000000002043
:102B30000C000020182C00080C000020F8010020D8
:102B4000FEE7000070B500260C4D0D4C641BA41070
:102B5000A64209D1002600F021F80A4D0A4C641B58
:102B6000A410A64205D170BDB300EB5898470136BA
:102B7000EEE7B300EB5898470136F2E7102C000857
:102B8000102C0008102C0008142C000803008218D8
:102B9000934200D1704719700133F9E7F8B5C04688
:102BA000F8BC08BC9E467047F8B5C046F8BC08BCE7
:042BB0009E46704786
:102BB4000000000002030405060708090A0B0C0DB7
:102BC4000E0F10100102030405060708090A0B0C76
:102BD4000D0E0F10000000000000000001020304AD
:102BE4000607080900000000010203046C1D000828
:102BF400BC1D0008C81D0008D41D0008E01D000805
:0C2C0400EC1D0008F81D0008041E00086C
:042C1000E9000008CF
:042C1400C1000008F3
:0C2C1800010000000400000000127A001F
:0400000508002AC104
:00000001FF
